:1000000000800020BD010000111F0000DD1E000067
:10001000DD1E0000DD1E0000DD1E0000DD1E0000F4
:10002000DD1E0000DD1E0000DD1E0000111F0000AF
:10003000111F0000DD1E0000111F0000CD1E00007A
:10004000111F0000111F0000111F0000111F0000F0
:10005000111F0000111F0000111F0000111F0000E0
:10006000111F0000111F0000111F0000111F0000D0
:10007000111F0000111F0000111F0000111F0000C0
:10008000111F0000111F0000111F0000111F0000B0
:10009000111F0000111F0000111F0000111F0000A0
:1000A000111F0000111F0000111F0000111F000090
:1000B000111F0000111F0000111F0000111F000080
:1000C000111F0000111F0000111F0000111F000070
:1000D000111F0000111F0000111F0000111F000060
:1000E000111F0000111F0000111F0000111F000050
:1000F000111F0000D5190000111F0000192D00006C
:10010000111F0000F5070000111F0000111F000063
:10011000111F0000111F0000111F0000111F00001F
:10012000111F0000111F0000111F0000111F00000F
:10013000111F0000111F0000111F0000111F0000FF
:10014000111F0000111F0000111F0000111F0000EF
:100150004137000055370000693700007D37000047
:10016000111F0000B1210000111F0000111F00002D
:10017000111F0000111F0000111F0000111F0000BF
:10018000111F0000111F0000111F0000111F0000AF
:10019000111F0000111F0000111F0000111F00009F
:1001A000111F0000111F0000111F0000111F00008F
:1001B000111F0000111F000029350000564B4CF2A2
:1001C000205210B51A804DF628121A8000BF00BFC9
:1001D00001F0A1FE514B4FF010621A60504A9A6034
:1001E000504ADA60504A136813F4807301BF4F49D4
:1001F0000B604FF4A85313604D4B4E491A7810070B
:1002000042BF1A7842F008021A704B4B2A221A7029
:100210004A4A4B4B8B4204D252F8040F43F8040B6A
:10022000F8E7484B484A0021934202D243F8041BA6
:10023000FAE7464A4648002350F8231042F82310B4
:1002400001336F2BF8D1434B434A802103F8011B44
:100250009342FBD1414B3D4A1A60414B0A221A702E
:10026000A3F5805324225A70A0221A709A7991071C
:10027000FCD59A79D206FCD43A4A937903F00C0360
:10028000082B384BF9D103221A7140225A719A79FE
:100290009406FCD533498A79324B5006FBD5324A55
:1002A000324911600221516020221A709A7902F0BD
:1002B0000C020C2AFAD12E4B2E4A1A602E4B4BF60A
:1002C0007F321A6000225A60072243F8042C2B4A1E
:1002D000C3F80C2D62B601F068F8144B1B68DA07FE
:1002E00005D5274800F0B8FD264B274A1A60274B52
:1002F0001B785B0609D5234C234B22689A4204D114
:100300001F4800F0A9FD0023236004F08BFA01F0E0
:1003100009FE03F069F9FEE70E2005403080044035
:10032000823F04000100002B10D0034014D0034092
:1003300002D007403488FF1F00E00740D86100006A
:100340001C87FF1F3488FF1F248CFF1F0082FF1FA4
:100350000000000000E400E05FE400E008ED00E0E1
:100360000050064000400640448004400000131145
:1003700004800440C010050014E000E000002020CC
:10038000000000001CE00340A5C3945A00F00740A1
:10039000FFFFFFFFFFFFFFFFFFFFFFFFFFFFFFFF6D
:1003A000FFFFFFFFFFFFFFFFFFFFFFFFFFFFFFFF5D
:1003B000FFFFFFFFFFFFFFFFFFFFFFFFFFFFFFFF4D
:1003C000FFFFFFFFFFFFFFFFFFFFFFFFFFFFFFFF3D
:1003D000FFFFFFFFFFFFFFFFFFFFFFFFFFFFFFFF2D
:1003E000FFFFFFFFFFFFFFFFFFFFFFFFFFFFFFFF1D
:1003F000FFFFFFFFFFFFFFFFFFFFFFFFFFFFFFFF0D
:10040000FFFFFFFFFFFFFFFFFFFFFFFFDEF9FFFF23
:1004100010B5054C237833B9044B13B10448AFF33E
:1004200000800123237010BD3488FF1F00000000EE
:10043000DC610000084B10B51BB108490848AFF358
:1004400000800848036803B910BD074B002BFBD0A0
:10045000BDE81040184700BF000000003888FF1FAB
:10046000DC6100003488FF1F00000000154A13689B
:1004700043F480531360144A002313705370937035
:10048000D3701371114A40F2133111604FF451715E
:1004900051600F4AC0F344311170C0F3471100F0AE
:1004A0001F0051709072937013742C23D370094BFA
:1004B00040226FF44B711A700B444FF400321A60F3
:1004C000704700BF348004405088FF1F08C00440BC
:1004D00000C0064031E400E0134B9A7802F0EC01D2
:1004E00000F003020A43410748BF42F010029A702D
:1004F0000D4900F00F02042A02BF8A7942F040023F
:100500008A715A79C30602F0EF02074B48BF42F0E6
:1005100010025A719A79810602F0EF0248BF42F048
:1005200010029A71704700BF00C00640104B1B6854
:10053000DB0410B500D410BD0E4C21790D4B01F039
:10054000FF0211B103F02CF8F7E70B494FF400302C
:1005500008600A490A48CA7040F20311016041600C
:100560001A705A709B680BB101221A7010BD00BF3F
:10057000348004405088FF1F84E100E000C0064042
:1005800008C004400A4A38B50446137903F0FF0551
:10059000002BFAD10121204600F048FD29462046D3
:1005A00000F016FD034B53F83420014BDA6038BDE0
:1005B0005088FF1FD85D000010B509B140F08000E1
:1005C0000E4B1A78904217D00D4C2468E40412D5D3
:1005D00002F07F02082A02BF0A4A002414600029A0
:1005E00000F07F010CBF44226022082902BF0549A8
:1005F00042F440720A60187010BD00BF2087FF1FD0
:10060000348004400CC00440704738B50C4B1B6864
:1006100013F480534FF0000410D02128094D0AD85C
:10062000094B012153F83030AB6000F0FFFCAB68A0
:100630001C70012038BDAC60204638BD184638BD5E
:10064000348004405088FF1FD85D00000B4B1B68AE
:1006500013F4805310D00E28094B09D1094A40F2F7
:10066000023111605A7B42F001025A730120704737
:100670005A7B02F0FE025A73002070473480044017
:1006800000C0064004C004401E4B1B68DA042DE97C
:10069000F041064633D51C4DEB680BB101221A70B0
:1006A000AC78DFF86480194F0134282C28BF00246F
:1006B000EA78154BA24218D101F057FC40280FDC14
:1006C0003B791B06F4D598F803300133282B28BF5B
:1006D0000023EA18DBB2127CD2B2FA71EB70E7E7C2
:1006E000FF28E5DD02F05CFFE2E71A19F6B21674A6
:1006F000E4B201221A719C70044BAC22DA70BDE89E
:10070000F08100BF348004405088FF1F00C00640C5
:1007100038B504464518AC4204D014F8010BFFF775
:10072000B3FFF8E738BD10B5034C237913B102F0DD
:1007300037FFFAE710BD00BF5088FF1F054B9878C0
:10074000DA78C0B2D3B298422CBF273303F1FF331B
:10075000181A70475088FF1F044B18785A78C0B297
:10076000D3B2984238BF4030C01A70475088FF1F3C
:1007700010B50F4C23786278D9B2D2B2914214D01E
:10078000531C402B28BF0023E21892F83800DAB23D
:100790006270A268C0B252B18B4288BF4031CB1A9E
:1007A0001A2B04DC0023137010BD4FF0FF3010BD76
:1007B0005088FF1F084A11785378DBB2994208D05D
:1007C0000133402B28BF0023134493F83800C0B2F4
:1007D00070474FF0FF3070475088FF1F044B5A7826
:1007E000D2B21A709B680BB100221A70704700BF1A
:1007F0005088FF1F10B5274B1A7992061FD5264A3D
:10080000D9791378507801333F2BC8BF0023834236
:1008100018BFD018C9B21EBF80F83810D9B21170F5
:10082000916861B11C4AD278D2B2934236BFC2F10C
:1008300040029B1A9B18272BC4BF01230B7015483D
:10084000C278D2B2130615D503791C0612D5124907
:100850008C78CB78DBB29C4202D16C23C37009E068
:100860000133282B28BF0023CC18DBB2247CE4B250
:10087000C471CB7051060BD5064B1A79520607D5B9
:10088000054A00211171D26802B111702C22DA7070
:1008900010BD00BF00C006405088FF1F30B50346A2
:1008A0000020B3FBF2F402FB1433092B94BF303366
:1008B0003733DBB20B5423460CB10130F1E70A1891
:1008C00023465470C41AA34206DACC5C1578CD5482
:1008D00002F801490133F5E7084630BD031E10B5A3
:1008E0000C4603DBBDE81040FFF7D8BF2D2001F810
:1008F000010B5842FFF7D2FF204610BD2DE9FF4102
:1009000090461E460C4603F059F903AB009342464D
:1009100002AB03F07AFF029D0746B8F1000F09D140
:1009200045B90778404B414A0120342F94BF174600
:100930001F4607E0384604F073F8A842C8BF0130EC
:1009400005B90130DDF80CE0BEF1000F00D0013038
:10095000231A002B06EB000209DD1A44314633440A
:100960004FF0200C994203D001F801CBFAE733464F
:10097000BEF1000F02D02D2119700133002D0CD1D2
:10098000B8F1000F06D01946302501F8025B2E257C
:100990005D700B464FF02E0E2CE0FBDAB8F1000F25
:1009A000F8D09E4630210EF8021B4FF02E0C83F833
:1009B00001C0734601324FF0000EED1A13EB050C27
:1009C00004D503F8011B4FF0010EF7E7BEF1000F4D
:1009D000E0D0CDF808C0DDE75D1C17F8011B1970E9
:1009E000AA420AD002990139029111B99D1C83F8DB
:1009F00001E02B469342EFD300E01346002C0DDAC2
:100A00002044404219462024421A1A44002A02DD9A
:100A100001F8014BF8E70028A8BF1B180022304658
:100A20001A7004B0BDE8F0817C5D00007E5D0000BE
:100A30001FB572B6154B70221A70154A41211170FC
:100A40000F2102F8011C80221A701A781206FCD5B8
:100A5000104B186862B6104B984298BF0A2301AC3D
:100A600098BF58430A222146FFF718FF0B4A00237C
:100A7000E15C21B101330A2B22F8021BF8D1084AAC
:100A800001335B00137004B010BD00BF00000240D2
:100A900007000240080002407F9698002487FF1F4D
:100AA0002287FF1F10B572B60B480268B2FA82F1B6
:100AB0000B2902DD62B6002010BD4FF00043CB4091
:100AC00022EA0302026062B6044C48234B43E0185A
:100AD0000022E250426010BDC087FF1FBC83FF1F91
:100AE0000C4B4822C31AB3FBF2F30B2B11D80A4A62
:100AF000127822B1094A12780AB101F0B7BA72B677
:100B000007494FF0004222FA03F30A681A430A60C9
:100B100062B67047BC83FF1F108AFF1F308AFF1F19
:100B2000C087FF1F204B10B51C681C60E00304D574
:100B30001E4B1A680AB11B689847A10304D51B4BCA
:100B40005A680AB15B689847E20704D5174B1A6CDC
:100B50000AB11B6C9847A30704D5144B5A6C0AB111
:100B60005B6C9847200704D5104B9A6C0AB19B6CBC
:100B70009847610704D50D4BDA6C0AB1DB6C9847D6
:100B8000220304D5094B5A6E0AB15B6E9847630382
:100B900008D5064BD3F8802022B1D3F88030BDE8C9
:100BA0001040184710BD00BFA0A00440C888FF1F18
:100BB0002D4B10B51C681C60200704D52B4B5A6ABE
:100BC0000AB15B6A9847E10604D5284B9A6A0AB1D4
:100BD0009B6A9847620604D5244BDA6A0AB1DB6A3D
:100BE0009847230604D5214B1A6B0AB11B6B984713
:100BF000A00604D51D4B5A6B0AB15B6B9847E10701
:100C000004D51A4BDA6B0AB1DB6B9847A20704D5FF
:100C1000164B9A6D0AB19B6D9847630704D5134B29
:100C2000DA6D0AB1DB6D9847A00504D50F4BDA6E7B
:100C30000AB1DB6E9847E10504D50C4B1A6F0AB177
:100C40001B6F9847620504D5084B5A6F0AB15B6F5A
:100C50009847230506D5054B9A6F1AB19B6FBDE8DF
:100C60001040184710BD00BFA0B00440C888FF1F47
:100C70001F4B10B51C681C60E00704D51D4B9A681B
:100C80000AB19B689847210604D51A4B5A690AB1E4
:100C90005B699847E20604D5164B9A690AB19B69CD
:100CA0009847630704D5134BDA690AB1DB699847A3
:100CB000200704D50F4B1A6A0AB11B6A9847A1078F
:100CC00004D50C4B9A6B0AB19B6B9847A20604D5CE
:100CD000084B1A6D0AB11B6D9847630606D5054B84
:100CE0005A6D1AB15B6DBDE81040184710BD00BFCA
:100CF000A0C00440C888FF1F124B10B51C681C60C0
:100D0000E00404D5104BDA680AB1DB689847A10407
:100D100004D50D4B1A690AB11B699847A20604D580
:100D2000094B1A6E0AB11B6E9847E30608D5064BAD
:100D3000D3F8842022B1D3F88430BDE8104018479E
:100D400010BD00BFA0900440C888FF1F0A4B10B51B
:100D50001C681C60A20704D5084B9A6E0AB19B6EF2
:100D60009847E30706D5054BDA6F1AB1DB6FBDE88C
:100D70001040184710BD00BFA0D00440C888FF1F16
:100D80001030024B43F82010704700BF0082FF1F55
:100D9000212830B531D8042A2FD8DFE802F007091E
:100DA00005030B00092306E00A2304E0082302E000
:100DB0000C2300E00B23114A114D02EBC0025468D2
:100DC000104AC2F89C51104DC2F8A0510F4DC2F804
:100DD000A4510F4DC2F8A8510E4DC2F8AC5172B6D5
:100DE000226822F47022226042F080750A4A45EAA5
:100DF000034342F82010236062B630BDD85D000086
:100E0000F90C00000082FF1F250B0000B10B000051
:100E1000710C00004D0D0000C888FF1F094B03EB4B
:100E2000C0035A6872B6136823F0877323F48033C3
:100E300043F080731360044B002243F8202062B615
:100E4000704700BFD85D0000C888FF1F014B1868BD
:100E5000704700BF00D00340044B054900221A60D0
:100E60000A60044A106010221A60704714D00340D0
:100E700004D0034000D0034000280EDB03024FF4EF
:100E80008072B3F5004F06D3013A012AA3EB0001AB
:100E900001D00B46F5E71B0A10E043421B024FF45A
:100EA0008072B3F5014F06D3013A012A00EB03012A
:100EB00001D00B46F5E71B0AC3F58073013A43EAFC
:100EC0000223014A136070470CD0034018B1102868
:100ED00028BF102000E00120014B1870704700BFB0
:100EE000C487FF1F2DE9F041884605462C492D4E49
:100EF000404603F025FC47F61223002816BF0227C0
:100F000001271E46002426FA04F003F023FA4FF0CE
:100F10005E5103F077FA0146404603F025FC10B914
:100F20000134072CEFD126FA04F003F013FA4146FE
:100F300003F01CFB4FF07C5103F05AF903F028FC3E
:100F40004FF6FF73984228BF1846EB1E012B06D8B8
:100F5000154B164900221A600A60154A18E0172D31
:100F60000CD8144BEB4003F0010383F001023BB1BA
:100F7000114B12491A600A60114A09E0202D01D074
:100F8000192D0BD10F4B104900221A600A600F4A2D
:100F9000106044EAC7041C60BDE8F081BDE8F08140
:100FA000001BB740006CDC0200900340049003403B
:100FB000089003406006F000008003400480034076
:100FC0000880034000800B4004800B4008800B40E9
:100FD000212810B518D80D4B53F8302092F88042D4
:100FE0003CB1012311B182F8803010BD82F800318C
:100FF00010BD03EBC0035B681A6811B142F0030235
:1010000001E022F002021A6010BD00BFD85D0000AE
:1010100021289FBF044B53F8303093F80002C0B230
:1010200088BF0020704700BFD85D0000212810B5A0
:1010300037D81C4A02EBC00301295B68144601D073
:1010400004290FD154F83020012082F880024FF497
:10105000A2721A601A6804290CBF42F0200222F022
:1010600020021DE052F83020002082F8800211B1E9
:101070008A1E012A12D84FF4807202291A6003D105
:101080001A6842F003020BE003290AD11A6842F001
:1010900002021A601A6822F0010201E040F2031213
:1010A0001A6010BDD85D0000282838B504464D4BA5
:1010B0000FD11B780B2B03D8C3F10C03994003E02D
:1010C0000C2B1CBF0C3B19410846BDE8384000F012
:1010D000E3BE1A780125002905FA02F301DC00219C
:1010E00002E08B4204D82946FFF772FF294674E0DC
:1010F0000338C3B2012B01D83B4B06E0202C01D0B2
:10110000192C01D1394B00E0394B1B6803FB01134B
:10111000D3401D2859D8DFE800F03F4539275858FB
:101120001B215858585858585858582D330F15588F
:10113000515858585858584B2E4A136040F2444260
:101140002D4B40E02D4A136040F244422C4B3AE0D4
:101150002C4A136040F244422B4B34E02B4A13607C
:1011600040F244422A4B2EE02A4A136040F24442A5
:10117000294B28E0294A136040F24442284B22E0E0
:10118000284A136040F24442274B1CE0274A136070
:1011900040F24442264B16E0264A13604FF4517247
:1011A000254B10E0254A13604FF45172244B0AE09E
:1011B000244A13604FF45172234B04E0234A136016
:1011C000234B4FF451721A6038BD7F29D4BF0021E0
:1011D00001212046FFF7FCFE01212046BDE83840F2
:1011E000FFF724BFC487FF1F0890034008800B400F
:1011F000088003401080034004B00440188003407E
:1012000008B00440208003400CB004402880034014
:1012100010B004403080034010C0044038800340C8
:1012200014C004404080034018C00440488003407C
:101230001CC00440109003403090044018900340BC
:101240003490044010800B4048A0044018800B40AC
:101250004CA004402DE9F04107460E469046082573
:10126000012408EA04013846FFF7B2FE01213046A6
:10127000FFF7AEFE00213046FFF7AAFE6400013DF5
:10128000E4B2EED1BDE8F0812DE9F04107460E460B
:1012900090460824802508EA05013846FFF798FEA5
:1012A00001213046FFF794FE00213046FFF790FE03
:1012B000013C4FEA5505EED1BDE8F08112B91A465E
:1012C000FFF7C8BF1A46FFF7DFBF2DE9F0418046A0
:1012D0000F4608260025012438460121FFF778FE35
:1012E0004046FFF795FE00B1254300213846FFF741
:1012F0006FFE6400013EE4B2EED12846BDE8F08105
:101300002DE9F04180460F46082500248026384606
:101310000121FFF75DFE4046FFF77AFE00B134433E
:1013200000213846FFF754FE013D4FEA5606EED144
:101330002046BDE8F0810AB9FFF7C7BFFFF7E0BF5D
:1013400072B60C4B0C4A0D491B68D2F8882009680C
:1013500062B6490102D5322B88BF0132C3F53B4347
:1013600030207F33B3FBF0F34FF47A7000FB023090
:10137000704700BF18E000E0C888FF1F04ED00E0E0
:1013800038B50446FFF7DCFF054624B938BD013CFB
:101390000AD005F57A75FFF7D3FF401BB0F57A7FC9
:1013A000F5D202F0FDF8F6E738BD204B4FF400020D
:1013B00010B51A604FF080721A604FF000721A6018
:1013C0004FF080621A604FF000621A60184B194AA1
:1013D000194C00204BF6FF711860596028231360E8
:1013E00093601361936113629362136393630922A1
:1013F000226004F58054043420606160A36023619E
:1014000044F8042C04F5FE2420600C4801600C49CB
:101410000B608B600B4B1A6000F002FC4FF4C8703D
:10142000FFF7AEFFBDE8104001F0C6B908E100E0EB
:10143000048003400C8003400080034008800B4080
:101440000C800B4000800B4070B50646C1EBC10418
:1014500033782BB1013CFBD1002070BD013CFBD0A7
:101460003378002BFAD0FFF76BFF0546337813B1C2
:10147000013CFBD1F0E7FFF763FF401B70BD70B587
:101480000646C1EBC10433782BB9013CFBD10020E7
:1014900070BD013CFBD03378002BFAD1FFF750FF31
:1014A0000546337813B9013CFBD1F0E7FFF748FF5D
:1014B000401B70BD21280DD8074B53F8300021B1D7
:1014C000114600F50070FFF7BFBF114600F5007030
:1014D000FFF7D5BF00207047D85D0000214A136890
:1014E00043F480631360204B00221A705A709A7084
:1014F000DA701A715B792BB1152B07D140F21332D8
:101500001A4B02E01A4B40F213321A60194B1B7847
:10151000012B05D0052B07D14FF45172164B02E079
:10152000164B4FF451721A60154BC0F344321A70C7
:10153000C0F347125A700221042200F01F00987273
:101540009A70D9745A7588221A743C22DA700D4B3D
:1015500040226FF44A711A700B444FF400521A6023
:10156000704700BF348004405489FF1F18C00440F6
:1015700040A00440C587FF1F1CC0044044A0044095
:1015800000A006402DE400E0134B9A7802F0EC0135
:1015900000F003020A43410748BF42F010029A706C
:1015A0000D4900F00F02042A02BF8A7942F040027E
:1015B0008A715A79C30602F0EF02074B48BF42F026
:1015C00010025A719A79810602F0EF0248BF42F088
:1015D00010029A71704700BF00A00640104B1B68B4
:1015E0005B0510B500D410BD0E4C21790D4B01F0F8
:1015F000FF0211B101F0D4FFF7E70B494FF400509F
:1016000008600A490A48CA7040F20311016041604B
:101610001A705A709B680BB101221A7010BD00BF7E
:10162000348004405489FF1F84E100E000A006409C
:1016300040A004400A4A38B50446137903F0FF0578
:10164000002BFAD101212046FFF7F0FC2946204665
:10165000FFF7BEFC034B53F83420014BDA6038BD72
:101660005489FF1FD85D000010B509B140F080001B
:10167000144A13789842144622D0134A126852052D
:101680001DD503F07F03012B04D0052B05D10022CB
:101690000E4B01E00E4B00221A60002900F07F0281
:1016A00014BF60234423012A05D0052A07D143F43F
:1016B0004073064A02E0064A43F440731360207008
:1016C00010BD00BFC587FF1F348004401CC004400C
:1016D00044A004400E4B5A79824218D00D49096843
:1016E000490513D52AB1152A05D10B4A00211160ED
:1016F00001E00A490A6028B1152807D140F21331E8
:10170000054A02E0054A40F21331116058717047F2
:101710005489FF1F3480044018C0044040A0044096
:1017200038B50D4B1B6813F480634FF0000410D0E4
:1017300021280A4D0AD80A4B012153F83030AB60FA
:10174000FFF774FCAB681C70012038BDAC6020460C
:1017500038BD184638BD00BF348004405489FF1F8F
:10176000D85D00000E4B1B6813F4806316D012285E
:101770000C4B03D140F202310B4A04E0142809D18A
:101780000A4A40F2023111605A7B42F001025A7358
:10179000012070475A7B02F0FE025A730020704706
:1017A0003480044000A006400CA0044014C0044053
:1017B0001E4B1B685A052DE9F041064633D51C4DDA
:1017C000EB680BB101221A70AC78DFF86480194F16
:1017D0000134402C28BF0024EA78154BA24218D1CE
:1017E00000F0C3FB40280FDC3B791B06F4D598F8CA
:1017F00003300133402B28BF0023EA18DBB2127CF0
:10180000D2B2FA71EB70E7E7FF28E5DD01F0C8FE20
:10181000E2E71A19F6B21674E4B201221A719C704A
:10182000044BBC22DA70BDE8F08100BF3480044074
:101830005489FF1F00A0064000F00F00092894BF44
:1018400030303730FFF7B4BF234B1B685A052DE902
:10185000F0413ED5214CE3680BB101221A70DFF84C
:10186000808006464718BE4230D2A578E37801351D
:10187000402D28BF00259D4208D0631916F8012B82
:101880001A74EDB201232371A570ECE7BC2388F82C
:10189000033000F06AFB402810DC98F804301B0687
:1018A00010D5E3780133402B28BF0023E218DBB2C8
:1018B000127CD2B288F80720E37003E0FF2801DD34
:1018C00001F06EFEE3789D42E3D0D6E7044BBC22E4
:1018D000DA70BDE8F08100BF348004405489FF1FF6
:1018E00000A0064010B5034C237913B101F058FE57
:1018F000FAE710BD5489FF1F054B9878DA78C0B21B
:10190000D3B298422CBF3F3303F1FF33181A70470C
:101910005489FF1F044B18785A78C0B2D3B298424A
:1019200038BF4030C01A70475489FF1F10B50F4CA4
:1019300023786278D9B2D2B2914214D0531C402B92
:1019400028BF0023E21892F85000DAB26270A26851
:10195000C0B252B18B4288BF4031CB1A1A2B04DC83
:101960000023137010BD4FF0FF3010BD5489FF1FCE
:10197000084A11785378DBB2994208D00133402BE2
:1019800028BF0023134493F85000C0B270474FF0B3
:10199000FF3070475489FF1F0B4B1B685B0512D546
:1019A0000A4BDA7802F0CB02DA7040225A74DA7805
:1019B00042F03402DA70064B5A78D2B21A709B6841
:1019C0000BB100221A7070473480044000A006401A
:1019D0005489FF1F70B53348037913F0300F2ED0B0
:1019E00072B6837D03F0FF0523B9C37940234374A6
:1019F00062B624E062B62C490B784A78DBB2D2B2E8
:101A00005C1C402C28BF00249442C67918BF0B19D7
:101A1000F6B21CBF83F8506023466C1E14F0FF051D
:101A2000EED1D8B20870896849B1934236BFC2F18D
:101A300040029B1A9B18272BC4BF01230B70194A25
:101A4000D078C0B206061DD513791D061AD51649E1
:101A50008D78CB78EDB2DBB2AB420BD00133402BAB
:101A600028BF00231479CC18247CE4B2D471147DEF
:101A7000072CF1D9DBB2CB700A4B1A79140644BF9C
:101A80007C22DA7041060BD5064B1A79520607D52F
:101A9000054A00211171D26802B111703C22DA703E
:101AA00070BD00BF00A006405489FF1F38B5451E19
:101AB00015F8014F44B10A2C02D10D20FFF778FE32
:101AC0002046FFF775FEF3E738BD10B50446000960
:101AD000FFF7B2FE2046BDE81040ADE610B5044663
:101AE000000AFFF7F2FF2046BDE81040FFF7EDBF08
:101AF00010B50446000EFFF7E8FF200CFFF7E5FFE6
:101B0000200AFFF7E2FF2046BDE81040FFF7DDBFE7
:101B1000F0B5374A374B11680906FCD4196811F043
:101B20008001F8D172B634480378002B5DD0334B76
:101B3000334A1F6804330C321B6852F80C6C52F89D
:101B4000085C52F8044C12683B4433442B44234451
:101B50001344C3F34E032B4A43F4004313602A4B50
:101B60001F68043340321B6852F80C6C52F8085C52
:101B700052F8044C12683B4433442B44234413442E
:101B8000C3F34E03214A43F400431360204B02F594
:101B900000221F68043310321B6816685568946869
:101BA0003B440C32334412682B4423441344C3F3A4
:101BB0004E03184A43F400431360174B1F68043365
:101BC00040321B6852F80C6C52F8085C52F8044C16
:101BD00012683B4433442B4423441344C3F34E0361
:101BE0000E4A43F400431360017062B6F0BD00BFBB
:101BF00024B0034024B00B40E489FF1F38B00340F9
:101C000040B003402CB0034058B0034030B0034014
:101C100038B00B402CB00B4058B00B4030B00B40EC
:101C200030B5214B214D2248224960221A70E12211
:101C30005A702C78204A03F58E23082C03F10C03EC
:101C400001D1012402E00A2C03D1392404601320BD
:101C500005E00C2C0CBF35243D24046012200860E4
:101C60001460164A1860537815491046154A03B196
:101C700001230B6013606978134A144B012901D8C2
:101C800080210BE0042901D8842107E0082901D82C
:101C9000852103E0102994BF8621872111601960F6
:101CA0000123037030BD00BF00400740C687FF1FFF
:101CB00008B003400CB0034008B00B40E489FF1F9C
:101CC00020B0034020B00B4024B0034024B00B40B0
:101CD0000D4B5A7858B1AAB9012159701B7823B11C
:101CE0000A4B1A6003F500231A60FFF799BF4AB147
:101CF00058701B78002BF8D0044B186003F50023B4
:101D00001860F2E7704700BFE489FF1F24B003406A
:101D10000C2810B404D9102828BF1020102307E085
:101D20000A2804D808288CBF0A23082300E00C23C3
:101D3000DCB2094A0949201A90700878834208D019
:101D400013780C7013B1064B00221A6010BCFFF719
:101D500067BF10BC704700BFE489FF1FC687FF1F25
:101D600024B0034010B5114B1B7804460BB1FFF7AC
:101D7000CFFE012C0E4A01D8002302E0042C02D829
:101D8000042313600EE0082C03D8052313600823F6
:101D900008E0102C95BF062307231360136094BF3F
:101DA00010232023034A537010BD00BFE489FF1F96
:101DB00024B00340C687FF1F0D282DE9F0410FD93D
:101DC000172801D80E380AE0A0F11A03052B01D814
:101DD000093804E0A0F12203062B4CD81838C0B211
:101DE000264B274C1D5C23780BB1FFF791FE29068B
:101DF00015D472B6234E01273560E77062B672B60D
:101E000033681A0604D5204B00221B68E27025E0D7
:101E1000E378002BF0D062B601F0C2FBEFE772B6B8
:101E20001A4EDFF8708005F04007FFB205F03F055D
:101E3000336817B123F0100301E043F0100333605F
:101E40000123C8F80050237162B672B6D8F800308A
:101E50001B0609D50E4B00221B68227162B6A078C2
:101E600043FA00F0BDE8F0812379002BE0D062B6A0
:101E700001F096FBE9E70020BDE8F081E85E000094
:101E8000E489FF1F00B0034010B003400CB00B40CA
:101E900010B00B4000B00B40084A136843F4805365
:101EA0001360074B5A78074B0AB1802200E0C0222A
:101EB0001A70054B80F30C00188070472C8004408A
:101EC000E489FF1F21C00C4000C00C40024A136887
:101ED00001331360704700BF5089FF1F08B50B4DD9
:101EE0002C462B68580301D500F062F92368590588
:101EF00001D5FFF76FFD23681A0501D500F00CFF2F
:101F00002368DB04EDD5FEF775FCEAE73480044076
:101F100008B5FFF7E3FF024B10221A80704700BF9D
:101F2000002005407047034A1368184410601846A3
:101F3000704700BFC887FF1F002070474FF0FF3079
:101F400070474FF400534B600020704701207047EA
:101F50004FF0FF307047FEE7FEE70078B0FA80F000
:101F600040097047012303707047EFF313839BB957
:101F7000EFF3108098B9EFF3058323B10F2B04D949
:101F8000084A985C01E04FF48070EFF311833BB195
:101F9000984228BF184670474FF0FF3070471846E8
:101FA000704700BFF0E300E070B50C4B0C4D1A78A1
:101FB00042F0020605EBC60482F001026060587828
:101FC0001A70002814BFC824882480F0010044EA55
:101FD0000141587045F8361070BD00BFEC89FF1FF5
:101FE0000080FF1F431E032B10B510D872B6094A9C
:101FF00002EB8302506840B1416851600649048891
:1020000031F81320121B21F8132062B610BD0020F6
:1020100010BD00BFEC89FF1F0C8CFF1F0138032887
:102020000CD8074B03EB8000436972B600201BB14C
:102030001A885B681044FAE762B670470020704760
:10204000EC89FF1F013803280BD872B6064B03EB4F
:1020500080004369002013B101305B68FBE762B682
:1020600070470020704700BFEC89FF1F70B472B644
:10207000194C1A4901231A1912F8012C12071FD5FD
:102080009A00164E51F832502DB906EB4313083022
:102090005860134B09E042F0010251F832507DB90B
:1020A00006EBC203083058600E4B46F832300E4A39
:1020B00092F82430013B82F8243062B670BC70473D
:1020C0000133052BD7D162B6074B002283F82420B9
:1020D00070BCFEF705BD00BF805D00000080FF1FE3
:1020E00088004000C8004000EC89FF1F431E032BFE
:1020F00010B533D81A4A400140F01000104472B6AF
:10210000184AD41894F82540032C0BD8DFE804F0C3
:1021100015040207052411E0083002240EE00830FF
:1021200004240BE09B00D01844690CB9416101E024
:10213000C06A41601344D9620FE00324134410F0D5
:10214000080F0A8883F8254001F10803436014BF93
:10215000C823882343EA0243036062B610BD00BF70
:102160000080FF1FEC89FF1F431E032B30B517D8DB
:102170000C4C400140F01000204472B60A4CE518A7
:1021800095F8255015B10830002500E001252344BD
:10219000120442F0800283F825504160026062B66A
:1021A00030BD00BF0080FF1FEC89FF1F00BE7047DD
:1021B0002DE9F74FDFF8D892B54B1D78EDB215F049
:1021C000040F1C461CD0B34A92F84430ABB192F8CD
:1021D000451001F0FF0329B1013BDBB282F8453025
:1021E00003B900BEAC4A117801F0FF0329B1013BED
:1021F000DBB213700BB900F053FF042389F80030F1
:1022000005F0080303F0FF06002B00F07F82A34BCC
:10221000A34E1A78D2B213094FEA920440F0E98132
:1022200006EBC403596856F83430C3F38303013B0B
:102230000C2B00F2DA81DFE813F097019701D80147
:10224000D801D801D801D801D801B501D801D801E9
:10225000D8010D000A688F4D4B68AA64EB6492B2F6
:10226000904B46F8343040F28160002301218242D5
:102270002B653361B36169702C4617D8B2F5D06F06
:1022800080F02481B2F5817F00F0DF8006D8802ABB
:1022900000F0C680822A00F0C88035E140F20233A7
:1022A0009A4200F0E380B2F5A06F1BE042F22100F9
:1022B000824200F056810DD8B2F5086F00F0AA8076
:1022C000B2F5106F40F0208195F84A2085F844203F
:1022D0001F460AE042F221218A4200F00C8142F2BC
:1022E00021339A4200F014810EE1F219136A1B06A1
:1022F00003D5506A0838FEF7F3FB0837802FF4D176
:10230000694F4FF00008A7F1110B684A52F82800F6
:102310004FEA880A40B1416801920091FEF7E0FB64
:102320000099019A0846F5E7614B42F80A004AF81D
:1023300003005AF80B0030B142680092FEF7D0FB60
:10234000009A1046F7E75B4B03F1180243F80A00C6
:10235000594B4AF8020023F818003B78023B032B44
:1023600007D8DFE803F002040204002300E00123A1
:102370003B7008F10108B8F1040F07F10107C4D15F
:1023800000234E4FDFF81CA185F824304FF00108E0
:102390004B4B08EB0702434412F8012C9B0012F050
:1023A000080F1A704FEA880B25D0FEF77BFB38B177
:1023B00006EB481308305860424B46F83B3006E0C5
:1023C00094F8243046F83B00013384F82430FEF7BB
:1023D00069FB4BF0010338B106EBC30E0830CEF8B1
:1023E000040046F833A006E046F8330094F82430A1
:1023F000013384F824304BF002004BF0030208F163
:1024000001080023B8F1050F46F8303046F83230A5
:10241000BED17EE095F8443085F83C300B467BE039
:1024200085F83C3085F83D3075E0B5F84C20042A3D
:102430006AD885F83C3085F83D309200224B9B5C91
:102440009E0768D585F83C1065E0B5F84C2002F091
:102450007F02042A58D8B5F84A30002B54D11A49C3
:10246000920011440A7822F002020FE0B5F84C20E5
:1024700002F07F02042A47D8B5F84A30002B43D136
:102480001149920011440A7842F002020A7040E0B9
:1024900080200740EC89FF1F598BFF1F90200740C9
:1024A0000080FF1FC8004000118AFF1FF089FF1F36
:1024B000408AFF1F008AFF1F0C8CFF1F805D0000F9
:1024C00030C8011088004000C0200740B5F84A20FD
:1024D000B5F84C10A94B5C68B4B11888904208D18B
:1024E0005888884205D1120A032A0CBF23781B8919
:1024F00013E00C33EFE7A24A1168A24A1160A24A26
:1025000095F84A10117004E0A04B0F221A7028E0D1
:1025100000231C4601E002233C34B5F84E609E4285
:1025200028BF1E46402E374628BF40272046394642
:10253000FFF73AFDF61B3C4403D1402F11D137463B
:1025400003E0402E374628BF402720463946FFF794
:102550002BFDF61B3C4401D1402F02D12C65A5F880
:10256000646001228A4B3FE08A4AB2F8480042F296
:102570002103984212D188480023CD5C1D540133B9
:10258000072BFAD1844B1B680021862B08BF0F2331
:10259000084608BF82F84530FFF706FD7F4B46F836
:1025A000343022E07B4F3E6D96B1B7F86440402C4A
:1025B000254628BF402530462946FFF7F5FC601B1D
:1025C00080B2A7F8640008B9402D00D170193865B1
:1025D000B7F848206F4BB2F5A06F06D1002283F800
:1025E000492093F84A206E4B1A70694B01221A70E9
:1025F00088E0254606EBC404013B616802F008024E
:10260000DFB2A1F1080002F0FF03002A43D0FEF779
:1026100067FA604B03EB870ED819DEF8141019B374
:102620004A68CEF8142001F10802626090F8252073
:10263000032A10D8DFE802F00205080B3B4403220E
:1026400007E03B44022204E03B44052201E03B4416
:10265000042283F8252014F0080F0A8814BFC82329
:10266000882343EA02434BE090F82520032A09D847
:10267000DFE802F0484802053B44002208E03B4402
:10268000012205E014F0080F14BF032202223B448C
:1026900083F8252036E056F83520120C1FFA82FE0A
:1026A00021F808EC32B33B4A21F8063C4FEA870C8C
:1026B00041F8043C02EB0C014B680BB9486001E0A7
:1026C0004B6D58606244DFF8CC805065354A32F873
:1026D0001730734422F81730FEF7E4F910B10830D0
:1026E000606007E098F8243046F83500013388F838
:1026F000243007E02C4A294B14F0080F08BF13467A
:1027000046F83530082389F8003055E5E8071ED52E
:10271000204A1F4D2448114602232B7001F8686B94
:10272000224BA83283E80300DA6098601E619E6144
:10273000164B0D221A701E4AFF2313702370167455
:1027400013711C4B9F221A7001232B7012E0290673
:1027500004D50E4B0D221A7080232370AA0705D5CD
:10276000134A1378DBB2137002232370EB0644BFC5
:102770001023237003B0BDE8F08F00BF845D00001C
:102780005089FF1F1C8CFF1F5A8BFF1FC020074062
:1027900094200740EC89FF1F148CFF1FC8004000E5
:1027A000982007400C8CFF1F880040000080FF1F0E
:1027B000882007408420074010B5FEF739F9002330
:1027C000194819461950C4180833882B164A6160F5
:1027D000F8D116490B6843F480230B60144BC2F305
:1027E00007211970C2F30741120E19751A76114AA2
:1027F000FF2313700021137202F8703C012313753C
:1028000082F8801013710C4B70226FF450711A70A3
:102810000B444FF400721A6003F1C04303F5C82360
:1028200010221A7010BD00BF0080FF1F34800440CA
:102830009C2007408020074049E400E0214A1368BB
:1028400043F400631360204B00221A705A709A7090
:10285000DA701A711D4B1A78092A05D01A2A07D185
:1028600040F213311A4A02E01A4A40F21331116061
:102870005B780A2B05D01F2B07D14FF45172164BF2
:1028800002E0164B4FF451721A60154BC0F34432FC
:102890001A70C0F347125A7000F01F000422022180
:1028A00098729A70D9745A7588221A743C22DA7018
:1028B0000C4B40221A70A3F22B334FF400421A60E3
:1028C000704700BF34800440D48AFF1FCC87FF1FAD
:1028D00004D004400CB0044000D0044010B00440C8
:1028E00000B006402FE400E0134B9A7802F0EC01B0
:1028F00000F003020A43410748BF42F010029A70F9
:102900000D4900F00F02042A02BF8A7942F040020A
:102910008A715A79C30602F0EF02074B48BF42F0B2
:1029200010025A719A79810602F0EF0248BF42F014
:1029300010029A71704700BF00B00640104B1B6830
:102940001B0510B500D410BD0E4C21790D4B01F0C4
:10295000FF0211B100F024FEF7E70B494FF40040ED
:1029600008600A490A48CA7040F2031101604160D8
:102970001A705A709B680BB101221A7010BD00BF0B
:1029800034800440D48AFF1F84E100E000B0064098
:102990000CB004400A4A38B50446137903F0FF0529
:1029A000002BFAD101212046FEF740FB29462046A4
:1029B000FEF70EFB034B53F83420014BDA6038BDB1
:1029C000D48AFF1FD85D000010B509B140F0800027
:1029D000144A53789842144622D0134A1268D204FB
:1029E0001DD503F07F030A2B04D01F2B05D1002235
:1029F0000E4B01E00E4B00221A60002900F07F020E
:102A000014BF602344230A2A05D01F2A07D143F4A8
:102A10004073064A02E0064A43F440731360607054
:102A200010BD00BFCC87FF1F3480044000D004409D
:102A300010B004400F4B1A7882421AD00E49096830
:102A4000C90415D5092A04D01A2A05D100210B4A38
:102A500001E00B4A00211160092805D01A2807D18E
:102A600040F21331054A02E0054A40F21331116089
:102A700018707047CC87FF1F3480044004D0044096
:102A80000CB0044038B50D4B1B6813F400634FF0D5
:102A9000000410D021280A4D0AD80A4B012153F80E
:102AA0003030AB60FEF7C2FAAB681C70012038BD55
:102AB000AC60204638BD184638BD00BF34800440A5
:102AC000D48AFF1FD85D00000B4B1B6813F4006312
:102AD00010D01728094B09D1094A40F20231116080
:102AE0005A7B42F001025A73012070475A7B02F070
:102AF000FE025A73002070473480044000B0064044
:102B000008B004401E4B1B681A052DE9F04106462B
:102B100033D51C4DEB680BB101221A70AC78DFF88D
:102B20006480194F0134282C28BF0024EA78154B03
:102B3000944218D1FFF719FA40280FDC3B791B06A5
:102B4000F4D598F803300133282B28BF0023EA1866
:102B5000DBB2127CD2B2FA71EB70E7E7FF28E5DD59
:102B600000F01EFDE2E71A19F6B21674E4B2012273
:102B70001A719C70044BBC22DA70BDE8F08100BF72
:102B800034800440D48AFF1F00B00640234B1B68EA
:102B90001A052DE9F0413ED5214CE3680BB1012225
:102BA0001A70DFF8808006464718BE4230D2A578FA
:102BB000E3780135282D28BF00259D4208D06319F0
:102BC00016F8012B1A74EDB201232371A570ECE7FE
:102BD000BC2388F80330FFF7C8F9402810DC98F8C8
:102BE00004301B0610D5E3780133282B28BF0023BF
:102BF000E218DBB2127CD2B288F80720E37003E05F
:102C0000FF2801DD00F0CCFCE3789D42E3D0D6E75D
:102C1000044BBC22DA70BDE8F08100BF3480044070
:102C2000D48AFF1F00B0064010B5034C237913B1BE
:102C300000F0B6FCFAE710BDD48AFF1F054B987868
:102C4000DA78C0B2D3B298422CBF273303F1FF33F6
:102C5000181A7047D48AFF1F044B18785A78C0B2EC
:102C6000D3B2984238BF4030C01A7047D48AFF1F91
:102C700010B50F4C23786278D9B2D2B2914214D0F9
:102C8000531C402B28BF0023E21892F83800DAB218
:102C90006270A268C0B252B18B4288BF4031CB1A79
:102CA0001A2B04DC0023137010BD4FF0FF3010BD51
:102CB000D48AFF1F084A11785378DBB2994208D0B2
:102CC0000133402B28BF0023134493F83800C0B2CF
:102CD00070474FF0FF307047D48AFF1F0B4B1B68C3
:102CE0001B0512D50A4BDA7802F0CB02DA704022CB
:102CF0005A74DA7842F03402DA70064B5A78D2B25B
:102D00001A709B680BB100221A707047348004401F
:102D100000B00640D48AFF1F70B53348037913F022
:102D2000300F2ED072B6837D03F0FF0523B9C3792F
:102D30004023437462B624E062B62C490B784A788B
:102D4000DBB2D2B25C1C402C28BF00249442C6796E
:102D500018BF0B19F6B21CBF83F8386023466C1EEF
:102D600014F0FF05EED1D8B20870896849B19342DA
:102D700036BFC2F140029B1A9B18272BC4BF012308
:102D80000B70194AD078C0B206061DD513791D06FE
:102D90001AD516498D78CB78EDB2DBB2AB420BD0A9
:102DA0000133282B28BF00231479CC18247CE4B2EB
:102DB000D471147D072CF1D9DBB2CB700A4B1A7990
:102DC000140644BF7C22DA7041060BD5064B1A79F3
:102DD000520607D5054A00211171D26802B111705F
:102DE0003C22DA7070BD00BF00B00640D48AFF1FDD
:102DF00010B5104C23686BB1206843885A1C0344FB
:102E00001C7A03889A4212D3FDF76AFE094B00220E
:102E10001A600DE0084B1B7813B94FF0FF3010BD5E
:102E20000320FFF7DFF820600028E5D1F5E74280B6
:102E3000204610BD4C8BFF1F308AFF1F10B50B4C76
:102E4000236813B122686AB902E0094B1B7813B9F1
:102E50004FF0FF3010BD0320FFF7C4F820600028BA
:102E6000F0D1F5E753881344187A10BD4C8BFF1F3F
:102E7000308AFF1F044B9888044B1A681AB11388D4
:102E800052889B1A184470470C8CFF1F4C8BFF1FF5
:102E90002DE9F84FDFF87890DFF878B080460E46DD
:102EA0000027CA4686B39BF800306BB3D9F80030D0
:102EB00053B90320FFF796F8CAF8000020B303883F
:102EC00013B9FDF70DFEF4E7DAF800502B466988D8
:102ED00033F8084B641AB44228BF344622461944DA
:102EE000404601F0CDFC6B88A0442744361B1C44AF
:102EF0002B88A4B2A3426C80D4D82846FDF7F0FDFD
:102F00000023C9F80030CDE73846BDE8F88F00BF90
:102F10004C8BFF1F308AFF1F10B5094B1B786BB11C
:102F2000084C206818B1FDF7DBFD00232360032067
:102F3000FFF758F810B1FDF7D3FDF8E710BD00BF5B
:102F4000308AFF1F4C8BFF1F2DE9F8432A4C2B4E74
:102F5000012380460D4623712746002D48D0A368E3
:102F60000BBB47F20959337803F0FF020BB922710A
:102F700012E00420FFF766F8072806D80123237122
:102F8000FDF790FDA06070B93871B9F1010901D069
:102F9000237B2BB1012323734FF0FF30BDE8F8836F
:102FA00000F0FEFADFE7A168002323734B88C3F12A
:102FB0004002AA4228BF2A4698180B444880AD1AFE
:102FC000073308EB0209C84504D018F8012B03F8B1
:102FD000012FF8E74B883F2B06D940230B800420B4
:102FE000FFF784F80023A36005236373C846B4E7A2
:102FF00025712846BDE8F8834C8BFF1F308AFF1FE0
:1030000007B502AB012103F8010D1846FFF79CFF3D
:1030100003B05DF804FB10B50D4C01232371A368C8
:103020007BB90C4B1B7813B90020207110BD042014
:10303000FFF708F80728F7D8FDF734FDA06000284F
:10304000F2D0A368588800232371C0F1400010BD5E
:103050004C8BFF1F308AFF1F70B50F4B1B78D3B10D
:103060000E4CA568012626714DB100266B8866734B
:1030700029462B800420FFF739F8A66009E0FDF708
:1030800011FD014620B104206573FFF72FF800E021
:1030900066730023237170BD308AFF1F4C8BFF1FA6
:1030A00038B50D4C237903F0FF059BB9A16831B108
:1030B0004B880B800420FFF719F8A56038BDFDF799
:1030C000F1FC014620B10420BDE83840FFF70EB8FE
:1030D0000123637338BD00BF4C8BFF1F704703682B
:1030E000C9B21B6818470368C9B21B681847036850
:1030F000C9B21B6818470368C9B21B68184708B5EE
:103100000846FEF755FB012008BD08B50846FEF746
:103110004FFB012008BD38B508460D4601F080FC84
:10312000044601462846FEF78FFB204638BD10B501
:10313000084614461146FEF787FB204610BDFEF7F1
:10314000DBBBFEF729BC08B50846FEF70BFB0030D9
:1031500018BF012008BD08B50846FEF7E1FA0030A7
:1031600018BF012008BD08461146FEF77DBA084683
:10317000FEF7B0BA0846FEF75DBAFEF72FBA4B0865
:1031800003F1B76000F55840B0FBF1F0FEF7A6B9C7
:1031900010B54B0803F1B760144600F55840B0FB7A
:1031A000F1F0FEF79BF92046BDE81040FEF7ECB9C0
:1031B000FEF798BBFEF7DCBBFEF7B8BBFEF7AABB79
:1031C000044B00221A714FF47A711A73024A996003
:1031D0001A6070475C8BFF1F085F00007047036830
:1031E000C9B21B6818470368C9B21B68184703684F
:1031F000C9B21B6818470368C9B21B68184708B5ED
:103200000846FDF741FA012008BD08B50846FDF75C
:103210003BFA012008BD38B508460D4601F000FC18
:10322000044601462846FDF773FA204638BD10B51E
:10323000084614461146FDF76BFA204610BDFDF70F
:103240007DBAFDF7CBBA08B50846FDF7FFF90030A7
:1032500018BF012008BD08B50846FDF7D6F90030B3
:1032600018BF012008BD08461146FDF7A5B908465C
:10327000FDF7CAB90846FDF785B9FDF757B94B0800
:1032800003F1B76000F55840B0FBF1F0FDF7EEB880
:1032900010B54B0803F1B760144600F55840B0FB79
:1032A000F1F0FDF7E3F82046BDE81040FDF714B952
:1032B000FDF739BAFDF77EBAFDF75ABAFDF74CBAF9
:1032C000044B00221A714FF47A711A73024A996002
:1032D0001A6070476C8BFF1F685F00007047FFF734
:1032E0001BBEFFF7B9BEFFF7A9BDFFF781BDFFF712
:1032F000C1BD08461146FFF727BE0846FFF780BE4E
:10330000044B00221A714FF47A711A73024A9960C1
:103310001A6070477C8BFF1FC85F0000C029F0B5A2
:1033200028BFC02172B6124A002310605360936018
:10333000D36013615361936101278B4203D1002352
:103340004FF482740BE05C0902EB840403F01F0568
:1033500007FA05F66568354365600133EDE78B4292
:1033600004D004FB030253700133F8E762B6F0BDEA
:103370008C8BFF1F70B572B61E4B58681A4658B931
:10338000986858B9D86858B9186958B9586958B977
:10339000986958B962B670BD043308E0083306E096
:1033A0000C3304E0103302E0143300E01833B0FAB9
:1033B00080F14FF00044CC4020EA0400147F1860F4
:1033C0000134E4B20B4D147762B6281D1B1A9B1012
:1033D000C1EB43134FF482714B4303F5FB531C3392
:1033E00011680126CE54C818537FA34238BF6C77AA
:1033F00070BD00BF8C8BFF1F437872B60278012A24
:1034000002D9013A027010E009495A1101EB820217
:10341000DB434FF0004003F01F0320FA03F3506832
:1034200018430B7F5060013B0B7762B6704700BFBB
:103430008C8BFF1F30B5C3687BB1187A90420AD1DC
:1034400058685C7A006950F8245025B940F8241077
:10345000087801300870DB68EEE730BD437A8B42B4
:1034600088BF02694FF0000386BF52F8210042F87E
:1034700021301846704738B5437A8B4201D8002076
:1034800038BD036953F82140002243F82120002C65
:10349000F5D02378012B0ED9FFF76CFF054628B134
:1034A0004FF48072211D043001F0EAF92378013BCA
:1034B0002370284638BD204638BD4368427A5B7A7F
:1034C0009A420FD872B60268D3680BB9D06004E094
:1034D000D96809B10B46FBE7D86001231372426833
:1034E000137262B67047084B9A7F52B9074AD021CF
:1034F0001170A2F256324FF080410120116098778E
:1035000070470020704700BF8C8BFF1F5EE400E017
:10351000034B4FF080421A60024B00229A777047AB
:1035200088E100E08C8BFF1F194A136843F0807319
:103530002DE9F0411360174A174D136843F001035A
:103540001360164A2F68146A16469CB1237A7BB121
:103550002368D5F800801B68204698472A68E388CE
:10356000C8EB0202120991B29A42A18088BFE180A1
:103570006469EAE72B68F18CDB1B1B098B429AB26A
:1035800088BF064BB28488BFDA84BDE8F08100BFF3
:10359000FCED00E0001000E0041000E08C8BFF1F49
:1035A00010B50E4C2378BBB901232370FFF762FCE2
:1035B00008B1FFF793FEFEF7ADF908B1FFF78EFDF6
:1035C000FFF74AFB08B100F03BF8FDF7C5F808B17A
:1035D000FFF704FE0023237010BD00BFB48BFF1F54
:1035E00001210D20FDF722BD80B5FFF7F9FF202452
:1035F000064E074D274637604FF4FA70FDF7C0FEC0
:103600002C604FF4FA70FDF7BBFEF4E784F00F4036
:1036100088F00F4010B5044600F062F9204610BD56
:103620000448054A0549002303748023437710307A
:1036300001F0CEB8B88BFF1F1C87FF1F15360000A6
:1036400070470368C9B21B6818470368C9B21B6892
:1036500018470368C9B21B6818470368C9B21B68DA
:10366000184708B50846FFF74DFA012008BD08B510
:103670000846FFF747FA012008BD38B508460D4651
:1036800001F0CEF9044601462846FFF77FFA2046AE
:1036900038BD10B5084614461146FFF777FA2046A4
:1036A00010BDFFF7CBBAFFF719BB08B50846FFF707
:1036B0000BFA003018BF012008BD08B50846FFF717
:1036C000E1F9003018BF012008BD08461146FFF798
:1036D0007BB90846FFF7AEB90846FFF75BB9FFF7BD
:1036E0002DB94B0803F1B76000F55840B0FBF1F07D
:1036F000FFF7A4B810B54B0803F1B760144600F506
:103700005840B0FBF1F0FFF799F82046BDE81040B3
:10371000FFF7EAB8FFF788BAFFF7CCBAFFF7A8BA05
:10372000FFF79ABA044B00221A714FF47A711A7398
:10373000024A99601A607047DC8BFF1FEC5F000043
:10374000024B01221A60024B1B6818470C710340A0
:10375000EC8BFF1F024B01221A60024B5B6818477B
:103760001C710340EC8BFF1F024B01221A60024BBD
:103770009B6818472C710340EC8BFF1F024B012202
:103780001A60024BDB6818473C710340EC8BFF1F4B
:10379000054A136843F400031360044B00221A60C7
:1037A000034B01221A7470473C80044000700340B0
:1037B000EC8BFF1F054B01221A60054A136823F4A6
:1037C00000031360034B00221A747047007003401B
:1037D0003C800440EC8BFF1FF0B54578134C076923
:1037E0002B011A194260124A9E188660114E46F843
:1037F000257000259D501951032199504378427B33
:103800004433DBB2037303F1604303F564430121E6
:103810001A70027B53119B0003F1604303F561436F
:1038200002F01F0201FA02F21A60F0BD00710340BB
:1038300008710340EC8BFF1F38B50C4B1B7C0BB998
:10384000FFF7A6FF0024094D05F11102E3B2A25CC7
:1038500032B943702C44FFF7BFFF0120607438BDBC
:103860000134042CEFD1002038BD00BFEC8BFF1FCA
:103870008268002310B41360027B0121541102F00E
:103880001F0201FA02F2094941F82420084A41784E
:10389000114411324B74995C29B90133042BFAD1CC
:1038A00010BCFFF787BF10BC704700BF80E100E08D
:1038B000EC8BFF1F037870B504460E4615461BB10E
:1038C000FFF7D6FF00230370266129462046FFF745
:1038D000B3FF10B10123237000E02070207870BD89
:1038E000037810B504460BB1FFF7C2FF0023237025
:1038F00010BD00BF81F0004102E000BF83F0004333
:1039000030B54FEA41044FEA430594EA050F08BF7A
:1039100090EA020F1FBF54EA000C55EA020C7FEA3E
:10392000645C7FEA655C00F0E2804FEA5454D4EBBB
:103930005555B8BF6D420CDD2C4480EA020281EA85
:10394000030382EA000083EA010180EA020281EABD
:103950000303362D88BF30BD11F0004F4FEA01310F
:103960004FF4801C4CEA113102D0404261EB41011E
:1039700013F0004F4FEA03334CEA133302D05242A4
:1039800063EB430394EA050F00F0A780A4F1010460
:10399000D5F1200E0DDB02FA0EFC22FA05F280189A
:1039A00041F1000103FA0EF2801843FA05F3594180
:1039B0000EE0A5F120050EF1200E012A03FA0EFCFF
:1039C00028BF4CF0020C43FA05F3C01851EBE37129
:1039D00001F0004507D54FF0000EDCF1000C7EEB46
:1039E00000006EEB0101B1F5801F1BD3B1F5001F84
:1039F0000CD349085FEA30004FEA3C0C04F10104A3
:103A00004FEA445212F5800F80F09A80BCF1004FCB
:103A100008BF5FEA500C50F1000041EB045141EA4D
:103A2000050130BD5FEA4C0C404141EB010111F44E
:103A3000801FA4F10104E9D191F0000F04BF0146F9
:103A40000020B1FA81F308BF2033A3F10B03B3F1D7
:103A500020020CDA0C3208DD02F1140CC2F10C0267
:103A600001FA0CF021FA02F10CE002F11402D8BFC5
:103A7000C2F1200C01FA02F120FA0CFCDCBF41EA91
:103A80000C019040E41AA2BF01EB0451294330BD60
:103A90006FEA04041F3C1CDA0C340EDC04F114043D
:103AA000C4F1200220FA04F001FA02F340EA030014
:103AB00021FA04F345EA030130BDC4F10C04C4F15A
:103AC000200220FA02F001FA04F340EA030029463A
:103AD00030BD21FA04F0294630BD94F0000F83F484
:103AE000801306BF81F480110134013D4EE77FEA67
:103AF000645C18BF7FEA655C29D094EA050F08BFB3
:103B000090EA020F05D054EA000C04BF1946104693
:103B100030BD91EA030F1EBF0021002030BD5FEAD7
:103B2000545C05D14000494128BF41F0004130BDFF
:103B300014F580043CBF01F5801130BD01F0004553
:103B400045F0FE4141F470014FF0000030BD7FEAC6
:103B5000645C1ABF194610467FEA655C1CBF0B46C1
:103B6000024650EA013406BF52EA033591EA030FD8
:103B700041F4002130BD00BF90F0000F04BF0021D0
:103B8000704730B54FF4806404F132044FF0000503
:103B90004FF0000150E700BF90F0000F04BF00217C
:103BA000704730B54FF4806404F1320410F00045E2
:103BB00048BF40424FF000013EE700BF42004FEADD
:103BC000E2014FEA31014FEA02701FBF12F07F435A
:103BD00093F07F4F81F06051704792F0000F14BF57
:103BE00093F07F4F704730B54FF4607401F000459B
:103BF00021F0004120E700BF50EA010208BF7047F2
:103C000030B54FF000050AE050EA010208BF7047E6
:103C100030B511F0004502D5404261EB41014FF44F
:103C2000806404F132045FEA915C3FF4DCAE4FF053
:103C300003025FEADC0C18BF03325FEADC0C18BF3A
:103C4000033202EBDC02C2F1200300FA03FC20FA8B
:103C500002F001FA03FE40EA0E0021FA02F11444D8
:103C6000C1E600BF70B54FF0FF0C4CF4E06C1CEAED
:103C700011541DBF1CEA135594EA0C0F95EA0C0F62
:103C800000F0DEF82C4481EA030621EA4C5123EAD5
:103C90004C5350EA013518BF52EA033541F4801104
:103CA00043F4801338D0A0FB02CE4FF00005E1FBB7
:103CB00002E506F00042E0FB03E54FF00006E1FB01
:103CC00003569CF0000F18BF4EF0010EA4F1FF0444
:103CD000B6F5007F64F5407404D25FEA4E0E6D4184
:103CE00046EB060642EAC62141EA55514FEAC52095
:103CF00040EA5E504FEACE2EB4F1FD0C88BFBCF511
:103D0000E06F1ED8BEF1004F08BF5FEA500E50F1C1
:103D1000000041EB045170BD06F0004646EA010187
:103D200040EA020081EA0301B4EB5C04C2BFD4EBB9
:103D30000C0541EA045170BD41F480114FF0000EB2
:103D4000013C00F3AB8014F1360FDEBF002001F020
:103D5000004170BDC4F10004203C35DA0C341BDC9A
:103D600004F11404C4F1200500FA05F320FA04F06C
:103D700001FA05F240EA020001F0004221F00041A0
:103D800010EBD37021FA04F642EB06015EEA430E13
:103D900008BF20EAD37070BDC4F10C04C4F1200543
:103DA00000FA04F320FA05F001FA04F240EA0200F6
:103DB00001F0004110EBD37041F100015EEA430EC7
:103DC00008BF20EAD37070BDC4F1200500FA05F2E7
:103DD0004EEA020E20FA04F301FA05F243EA020366
:103DE00021FA04F001F0004121FA04F220EA020075
:103DF00000EBD3705EEA430E08BF20EAD37070BDBB
:103E000094F0000F0FD101F00046400041EB01019A
:103E100011F4801F08BF013CF7D041EA060195F07C
:103E2000000F18BF704703F00046520043EB030336
:103E300013F4801F08BF013DF7D043EA0603704723
:103E400094EA0C0F0CEA135518BF95EA0C0F0CD02E
:103E500050EA410618BF52EA4306D1D181EA030174
:103E600001F000414FF0000070BD50EA410606BF6E
:103E70001046194652EA430619D094EA0C0F02D1B3
:103E800050EA013613D195EA0C0F05D152EA0336F8
:103E90001CBF104619460AD181EA030101F0004116
:103EA00041F0FE4141F470014FF0000070BD41F05F
:103EB000FE4141F4780170BD70B54FF0FF0C4CF439
:103EC000E06C1CEA11541DBF1CEA135594EA0C0F58
:103ED00095EA0C0F00F0A7F8A4EB050481EA030EA5
:103EE00052EA03354FEA013100F088804FEA03338C
:103EF0004FF0805545EA131343EA12634FEA02225A
:103F000045EA111545EA10654FEA00260EF000411A
:103F10009D4208BF964244F1FD0404F5407402D26C
:103F20005B084FEA3202B61A65EB03055B084FEAFD
:103F300032024FF480104FF4002CB6EB020E75EBFA
:103F4000030E22BFB61A754640EA0C005B084FEA22
:103F50003202B6EB020E75EB030E22BFB61A75469F
:103F600040EA5C005B084FEA3202B6EB020E75EBEA
:103F7000030E22BFB61A754640EA9C005B084FEA62
:103F80003202B6EB020E75EB030E22BFB61A75466F
:103F900040EADC0055EA060E18D04FEA051545EA5E
:103FA00016754FEA06164FEAC30343EA52734FEA07
:103FB000C2025FEA1C1CC0D111F4801F0BD141EA80
:103FC00000014FF000004FF0004CB6E711F4801FE5
:103FD00004BF01430020B4F1FD0C88BFBCF5E06FC5
:103FE0003FF6AFAEB5EB030C04BFB6EB020C5FEAD5
:103FF000500C50F1000041EB045170BD0EF0004E2A
:104000004EEA113114EB5C04C2BFD4EB0C0541EA5B
:10401000045170BD41F480114FF0000E013C90E658
:1040200045EA060E8DE60CEA135594EA0C0F08BF1C
:1040300095EA0C0F3FF43BAF94EA0C0F0AD150EA1B
:1040400001347FF434AF95EA0C0F7FF425AF1046AE
:1040500019462CE795EA0C0F06D152EA03353FF4D6
:10406000FDAE1046194622E750EA410618BF52EA53
:1040700043067FF4C5AE50EA41047FF40DAF52EA27
:1040800043057FF4EBAE12E74FF0FF3C06E000BFC4
:104090004FF0010C02E000BF4FF0010C4DF804CDD1
:1040A0004FEA410C7FEA6C5C4FEA430C18BF7FEA91
:1040B0006C5C1BD001B050EA410C0CBF52EA430CBF
:1040C00091EA030F02BF90EA020F0020704710F13F
:1040D000000F91EA030F58BF994208BF90422CBFCE
:1040E000D8176FEAE37040F0010070474FEA410CC7
:1040F0007FEA6C5C02D150EA013C07D14FEA430CE5
:104100007FEA6C5CD6D152EA033CD3D05DF8040B55
:10411000704700BF8446104662468C461946634687
:1041200000E000BF01B5FFF7B7FF002848BF10F15E
:10413000000F01BD4DF808EDFFF7F4FF0CBF0120A3
:1041400000205DF808FB00BF4DF808EDFFF7EAFF1F
:1041500034BF012000205DF808FB00BF4DF808EDDA
:10416000FFF7E0FF94BF012000205DF808FB00BFCF
:104170004DF808EDFFF7CEFF94BF012000205DF859
:1041800008FB00BF4DF808EDFFF7C4FF34BF012066
:1041900000205DF808FB00BF4FEA410212F5001253
:1041A00015D211D56FF47873B3EB625212D94FEA7E
:1041B000C12343F0004343EA505311F0004F23FA68
:1041C00002F018BF404270474FF00000704750EABD
:1041D000013005D111F0004008BF6FF0004070477A
:1041E0004FF00000704700BF80F0004002E000BFC9
:1041F00081F0004142001FBF5FEA410392EA030FD2
:104200007FEA226C7FEA236C6AD04FEA1262D2EB1B
:104210001363C1BFD218414048404140B8BF5B4220
:10422000192B88BF704710F0004F40F4000020F0B9
:104230007F4018BF404211F0004F41F4000121F0CF
:104240007F4118BF494292EA030F3FD0A2F1010219
:1042500041FA03FC10EB0C00C3F1200301FA03F157
:1042600000F0004302D5494260EB4000B0F5000F7A
:1042700013D3B0F1807F06D340084FEA310102F139
:104280000102FE2A51D2B1F1004F40EBC25008BFEB
:1042900020F0010040EA03007047490040EB0000B5
:1042A00010F4000FA2F10102EDD1B0FA80FCACF1E4
:1042B000080CB2EB0C0200FA0CF0AABF00EBC250E3
:1042C00052421843BCBFD0401843704792F0000FD1
:1042D00081F4000106BF80F400000132013BB5E724
:1042E0004FEA41037FEA226C18BF7FEA236C21D09A
:1042F00092EA030F04D092F0000F08BF08467047FF
:1043000090EA010F1CBF0020704712F07F4F04D1CC
:10431000400028BF40F00040704712F100723CBFDF
:1043200000F50000704700F0004343F0FE4040F409
:10433000000070477FEA226216BF08467FEA2363C7
:104340000146420206BF5FEA412390EA010F40F4B2
:10435000800070474FF0000304E000BF10F00043FE
:1043600048BF40425FEA000C08BF704743F09643E5
:1043700001464FF000001CE050EA010208BF704700
:104380004FF000030AE000BF50EA010208BF704787
:1043900011F0004302D5404261EB41015FEA010C9C
:1043A00002BF84460146002043F0B64308BFA3F194
:1043B0008053A3F50003BCFA8CF2083AA3EBC25376
:1043C00010DB01FA02FC634400FA02FCC2F1200295
:1043D000BCF1004F20FA02F243EB020008BF20F0CC
:1043E0000100704702F1200201FA02FCC2F1200232
:1043F00050EA4C0021FA02F243EB020008BF20EA27
:10440000DC7070474FF0FF0C1CEAD0521EBF1CEA54
:10441000D15392EA0C0F93EA0C0F6FD01A4480EA42
:10442000010C400218BF5FEA41211ED04FF000632B
:1044300043EA501043EA5111A0FB01310CF0004057
:10444000B1F5000F3EBF490041EAD3715B0040EA7D
:10445000010062F17F02FD2A1DD8B3F1004F40EB4D
:10446000C25008BF20F00100704790F0000F0CF020
:10447000004C08BF49024CEA502040EA51207F3AE4
:10448000C2BFD2F1FF0340EAC250704740F40000BF
:104490004FF00003013A5DDC12F1190FDCBF00F0B0
:1044A00000407047C2F10002410021FA02F1C2F15E
:1044B000200200FA02FC5FEA310040F1000053EAFA
:1044C0004C0308BF20EADC70704792F0000F00F048
:1044D000004C02BF400010F4000F013AF9D040EA4E
:1044E0000C0093F0000F01F0004C02BF490011F4E2
:1044F000000F013BF9D041EA0C018FE70CEAD153E0
:1045000092EA0C0F18BF93EA0C0F0AD030F0004C5F
:1045100018BF31F0004CD8D180EA010000F0004013
:10452000704790F0000F17BF90F0004F084691F0D1
:10453000000F91F0004F14D092EA0C0F01D142020B
:104540000FD193EA0C0F03D14B0218BF084608D1D4
:1045500080EA010000F0004040F0FE4040F400001E
:10456000704740F0FE4040F4400070474FF0FF0CB1
:104570001CEAD0521EBF1CEAD15392EA0C0F93EAF8
:104580000C0F69D0A2EB030280EA010C49024FEA4A
:10459000402037D04FF0805343EA111143EA101303
:1045A0000CF000408B4238BF5B0042F17D024FF4BB
:1045B000000C8B4224BF5B1A40EA0C00B3EB510F96
:1045C00024BFA3EB510340EA5C00B3EB910F24BF7F
:1045D000A3EB910340EA9C00B3EBD10F24BFA3EB04
:1045E000D10340EADC001B0118BF5FEA1C1CE0D1CC
:1045F000FD2A3FF650AF8B4240EBC25008BF20F07F
:10460000010070470CF0004C4CEA50207F32C2BFD2
:10461000D2F1FF0340EAC250704740F400004FF06F
:104620000003013A37E792F0000F00F0004C02BFA0
:10463000400010F4000F013AF9D040EA0C0093F06A
:10464000000F01F0004C02BF490011F4000F013BC4
:10465000F9D041EA0C0195E70CEAD15392EA0C0F2C
:1046600008D142027FF47DAF93EA0C0F7FF470AF64
:10467000084676E793EA0C0F04D14B023FF44CAFA7
:1046800008466EE730F0004C18BF31F0004CCAD13C
:1046900030F000427FF45CAF31F000437FF43CAF78
:1046A0005FE700BF4FF0FF3C06E000BF4FF0010C9A
:1046B00002E000BF4FF0010C4DF804CD4FEA40027C
:1046C0004FEA41037FEA226C18BF7FEA236C11D0C6
:1046D00001B052EA530C18BF90EA010F58BFB2EB79
:1046E000030088BFC81738BF6FEAE17018BF40F0F9
:1046F000010070477FEA226C02D15FEA402C05D1AD
:104700007FEA236CE4D15FEA412CE1D05DF8040B31
:10471000704700BF844608466146FFE70FB5FFF7C4
:10472000C9FF002848BF10F1000F0FBD4DF808ED7C
:10473000FFF7F4FF0CBF012000205DF808FB00BF6D
:104740004DF808EDFFF7EAFF34BF012000205DF8C7
:1047500008FB00BF4DF808EDFFF7E0FF94BF012014
:1047600000205DF808FB00BF4DF808EDFFF7D2FF11
:1047700094BF012000205DF808FB00BF4DF808ED54
:10478000FFF7C8FF34BF012000205DF808FB00BF21
:1047900042000ED2B2F1FE4F0BD34FF09E03B3EBAB
:1047A000126209D44FEA002343F0004323FA02F0D7
:1047B00070474FF00000704712F1610F01D14202C3
:1047C00002D14FF0FF3070474FF00000704700BF3C
:1047D0000B460146184600F001B8FFFF10B5054C26
:1047E00013462CB10A4601460220AFF3008010BDEB
:1047F000204610BD0000000013B500240194049C65
:10480000009400F015F902B010BD73B515461E46B0
:104810000C46FFF7D3F900962B462246FFF7ECFF34
:1048200002B070BD70B50E4B0E4CE41AA4100025FA
:104830001E46A54204D056F8253098470135F8E7C2
:1048400001F0B8FC084C094BE41AA41000251E46E0
:10485000A54204D056F8253098470135F8E770BDD9
:10486000C0610000C0610000D8610000C0610000AC
:10487000024B0146186800F065B800BF3088FF1F82
:1048800010B5431E0A44914204D011F8014B03F8BD
:10489000014FF8E710BD02440346934202D003F8EB
:1048A000011BFAE77047FFFF38B50546002946D0DF
:1048B00051F8043C0C1F002BB8BFE41800F01CF9A1
:1048C0001F4A1368114613B96360146032E0A342B3
:1048D0000ED92268A018834204BF18685B68636021
:1048E00004BF121822600C6024E0A24203D81346D1
:1048F0005A68002AF9D118681918A1420BD1216809
:10490000014458188242196014D1106852685A60E4
:10491000014419600EE002D90C232B600AE02168E3
:104920006018824204BF10685268626004BF0918B0
:1049300021605C602846BDE8384000F0DEB838BD34
:10494000088CFF1F70B5CD1C25F0030508350C2D14
:1049500038BF0C25002D064601DBA94202D90C23E5
:10496000336046E000F0C8F8234B1C681A46214625
:10497000A1B10B685B1B0ED40B2B03D90B60CC18B9
:10498000CD501EE08C420DBF63684B6863601360BE
:1049900018BF0C4615E00C464968E9E7174C236838
:1049A0001BB9304600F02CF820602946304600F054
:1049B00027F8431C18D0C41C24F00304A0420DD1D6
:1049C0002560304600F099F804F10B00231D20F01B
:1049D0000700C31A0ED05A42E25070BD211A304669
:1049E00000F00EF80130EBD10C233360304600F0BC
:1049F00084F8002070BD00BF088CFF1F048CFF1FCF
:104A000038B5064C0023054608462360FDF78BFAAF
:104A1000431C02D1236803B12B6038BD208CFF1FDB
:104A2000034613F8012B002AFBD1181A01387047EE
:104A30002DE9F04F89B09A46139C2C4BDDF848B015
:104A40001D6880468946174684B902F123032A6B04
:104A50009A420ADC07F124042246696B284600F0DA
:104A600031FB00283ED02C6368636C6B204B002226
:104A700040464946FFF768FB07AE70B100221D4B68
:104A800040464946FFF77EFB38B10496CDF80CB09E
:104A9000CDF808A00197022306E00496CDF80CB0EB
:104AA000CDF808A001970323009342464B462846C1
:104AB00000F0BEFBDAF800305B4221461B1B079D6D
:104AC000A8420A4604D210F8012B01F8012BF6E7A0
:104AD0003020D1188F4202DD02F8010BF9E70023E4
:104AE0001370204609B0BDE8F08F00BF3088FF1F6B
:104AF0000000F03F0000F0BF7047704770B5456A96
:104B000004460E463DB91020FFF7B2FE60624560D4
:104B100085600560C560656AEB6843B1636ADB6800
:104B200053F8260078B1026843F8262017E02122C6
:104B30000421204600F0B8FA636AE860DB68002BC5
:104B4000ECD1002070BD012101FA06F56A1D92002A
:104B5000204600F0A9FA0028F3D0466085600023C3
:104B60000361C36070BD70B5446A06460D463CB92A
:104B70001020FFF77DFE7062446084600460C460B2
:104B80003DB1736A6A68DB6853F82210296043F804
:104B9000225070BD2DE9F0410D691F4606460C46B6
:104BA00001F1140E0023DEF8000081B202FB017156
:104BB0000F0C000C02FB007089B2013301EB0041C5
:104BC0009D424FEA10474EF8041BECDCD7B1A368B6
:104BD0009D4212DB616830460131FFF78FFF226989
:104BE000023204F10C01804692000C30FFF748FEBF
:104BF00021463046FFF7B7FF444604EB85030135F5
:104C00005F6125612046BDE8F081030C1B0413B9E8
:104C10000004102300E0002310F07F4F04BF0002C7
:104C2000083310F0704F04BF0001043310F0404F00
:104C300004BF80000233002803DB420003D5581C68
:104C400070471846704720207047036813F007022A
:104C50000BD0D90722D49A074BBF5B089B0803608F
:104C600003604CBF01200220704799B209B91B0CA8
:104C7000102213F0FF0F04BF1B0A0832190704BFEC
:104C80001B090432990704BF9B080232D90702D4DA
:104C90005B0805D001320360104670470020704762
:104CA0002020704710B50C460121FFF727FF012295
:104CB0004461026110BD2DE9F74F14460A6923696A
:104CC0009A42B8BF0B468846BCBFA0461C46D8F8DF
:104CD0001070D4F81090D8F80830D8F8041007EB0A
:104CE00009069E42C8BF0131FFF708FF00F1140515
:104CF00005EB860C2B460022634502D243F8042BB9
:104D0000FAE704F1140208F1140102EB890301EB44
:104D100087070093009B0192934257D9B2F800B0E5
:104D2000BBF1000F23D08946AE464FF0000859F87A
:104D3000044BBEF800A0A3B20BFB03A34FEA144A36
:104D4000DEF8004043444FEA14480BFB0A8404EBAE
:104D50001344F2469BB243EA04434F454FEA1448DA
:104D60004AF8043B01D9D646E1E7CEF80480019B1E
:104D7000B3F802A00432BAF1000F21D02B682C4600
:104D800089464FF00008B9F800E0B4F802B00AFB19
:104D90000EBEF044A3469BB243EA08434BF8043BE3
:104DA00059F8043BB4F804E01B0C0AFB03E303EBE3
:104DB00018434F454FEA134801D95C46E3E7636067
:104DC0000435A7E75CF8043D13B9013E002EF9DC79
:104DD000066103B0BDE8F08F2DE9F843154612F0E7
:104DE000030206460F4607D0013A214C002354F82F
:104DF0002220FFF7CFFE0746AD1036D0746A3CB9CB
:104E00001020FFF735FD7062446084600460C46068
:104E1000D6F82480D8F808404CB940F271213046C9
:104E2000FFF740FF0023C8F80800044603604FF076
:104E30000008EB070AD5394622463046FFF73BFF0C
:104E4000394681463046FFF78EFE4F466D100CD036
:104E5000206808B10446ECE7224621463046FFF7B9
:104E60002AFF2060C0F80080F4E73846BDE8F883E8
:104E7000986100002DE9F0470C464FEA621A266956
:104E80004968A368564407469146751CAB4202DA4E
:104E900001315B00FAE73846FFF730FE0023804619
:104EA00000F114011A46534503DA41F82320013377
:104EB000F9E72AEAEA73206901EB830319F01F0975
:104EC00004F1140101EB800E14D0C9F1200C002272
:104ED000086800FA09F002439A4643F8042B51F897
:104EE000042B8E4522FA0CF2F2D8CAF8042042B103
:104EF000B51C06E0043B51F8042B43F8042F8E4503
:104F0000F9D8013D3846C8F810502146FFF72BFE6E
:104F10004046BDE8F08703690A699B1A10B511D1B4
:104F200092001430143183180A4453F8044D52F897
:104F3000041D8C4202D007D3012010BD9842F4D347
:104F4000002010BD184610BD4FF0FF3010BD2DE9F8
:104F5000F8430C460746114620461546FFF7DBFF8F
:104F6000061E08D131463846FFF7C8FD012303610C
:104F70004661BDE8F883BCBF23462C4638466168CD
:104F8000BABF1D4601260026FFF7B8FD2B69C66093
:104F9000266905F11409143404EB860709EB83082C
:104FA00000F114054FF0000C54F8043B59F8042BA1
:104FB0001CFA83F11FFA82FE120CCEEB0101C2EB48
:104FC000134303EB214389B24FEA234CC84541EA1E
:104FD0000343A64645F8043BE6D8BE450ED25EF82C
:104FE000041B1CFA81F2131403EB114392B242EA40
:104FF00003424FEA234C45F8042BEEE755F8043DF5
:105000000BB9013EFAE70661BDE8F8832DE9F341EB
:1050100001211C469046089E099DFFF76FFDC4F3D1
:105020001302C4F30A5407460CB142F480120192F1
:10503000B8F1000F19D002A840F8088DFFF705FE5F
:10504000009B48B1019AC0F1200102FA01F10B4323
:10505000C2407B61019200E07B61019BBB61002B40
:1050600014BF02210121396107E001A8FFF7EDFD1E
:10507000019B7B6101213961203034B1A4F23344BA
:1050800004443460C0F1350009E007EB8103A0F26D
:10509000324030601869FFF7B8FDC0EB411028605E
:1050A000384602B0BDE8F08138B502FB01F4214674
:1050B000FFF748FC054618B122460021FFF7EBFB3D
:1050C000284638BDF8B5074615460E4621B91146A3
:1050D000BDE8F840FFF736BC1AB9FFF7E5FB2846F4
:1050E000F8BD00F041FE85420ED929463846FFF74B
:1050F00029FC044650B131462A46FFF7C1FB314630
:105100003846FFF7D1FB01E03046F8BD2046F8BD38
:105110002DE9F74F03690C699C42804600F38380B8
:10512000013C01F114074FEA840E00F1140657F810
:10513000245006EB0E030193013556F82430B3FBDF
:10514000F5F507EB0E09002D39D04FF0000A38466F
:10515000B446D34650F8042B93B205FB03A34FEAA1
:10516000134A9BB2C3EB0B03120CBCF800B005FB57
:1051700002A213FA8BF34FEA124A1FFA82FBDCF801
:105180000020CBEB124202EB23429BB243EA0243E4
:1051900081454FEA224B4CF8043BDBD256F80E30E7
:1051A0006BB9019B043B9E421A4602D3C8F81040DB
:1051B00005E01268043B002AF8D1013CF3E74046C1
:1051C000FFF7A9FE00282CDB013530464FF0000E1A
:1051D00057F8041BD0F800C08AB2C2EB0E03090CCA
:1051E00013FA8CF3C1EB1C4202EB23429BB243EA5D
:1051F0000243B9454FEA224E40F8043BE8D256F844
:10520000242006EB840362B9043B9E421A4602D373
:10521000C8F8104005E01268043B002AF8D1013CB0
:10522000F3E7284600E0002003B0BDE8F08FFFFF61
:105230002DE9F04F456A95B08246219CCDE90223C5
:1052400045B91020FFF714FBCAF8240045608560BB
:105250000560C560DAF82430196859B15A684A60A7
:10526000012393408B605046FFF77DFCDAF8243031
:1052700000221A60039BA04A002BBFBF01232360BA
:10528000039B23F00043B8BF0393DDF80C80A4BF59
:105290000023236028F000431B0D1B0593421DD102
:1052A000209A42F20F731360029B43B9934A944BC6
:1052B000C8F31300002814BF1846104600E09048B9
:1052C000229B002B00F04A85C37813B100F108033C
:1052D00000E0C31C229A136000F040BDDDE90245E6
:1052E0000022002320462946FEF724FF074658B136
:1052F000209A01231360229B002B00F02285814815
:105300001860013800F02ABD12AB019313AB009373
:1053100022462B465046FFF779FEC8F30A56049002
:1053200056B1C5F3130343F07F51204641F44011B9
:10533000A6F2FF3611971DE0139B129E1E4406F243
:105340003243202B0ADD029A06F21240C3F14003D9
:1053500022FA00F008FA03F3184304E0C3F1200036
:10536000029B03FA00F0FEF707FC0123A1F1F8719C
:10537000013E11930022644BFEF7C0FA58A3D3E913
:105380000023FEF76FFC58A3D3E90023FEF7B8FA19
:10539000044630460D46FEF7FFFB55A3D3E9002334
:1053A000FEF760FC02460B4620462946FEF7A8FAA7
:1053B00004460D46FEF7F0FE0022834600232046F9
:1053C0002946FEF7C1FE58B15846FEF7E5FB0246F6
:1053D0000B4620462946FEF7ADFE08B90BF1FF3B10
:1053E000BBF1160F0DD8494901EBCB01DDE90223D2
:1053F000D1E90001FEF7C6FE30B10BF1FF3B0023FF
:1054000000E00123109300E01090129B9E1B731E7E
:10541000079343BFC3F10008002307934FF0000830
:10542000BBF1000F06DB079BCDF82CB05B44079364
:10543000002705E00023CBEB0808CBF100070B9316
:105440001E9B092B27D8052BC4BF043B1E931E9B14
:10545000A3F10203CCBF00250125032B20D8DFE8F0
:1054600003F0060E0204012302E0012308E00023FA
:105470000A931F9B002B1DDD9946059321E0002315
:105480000A931F9B0BEB030909F10103012B059301
:10549000B8BF012315E0012500231E930A9501E002
:1054A00001230A934FF0FF390022CDF81490122304
:1054B0001F9206E04FF00109CDF814904B46CDF84D
:1054C0007C90DAF8244000226260042101F1140289
:1054D0009A421DD86268013262604900F6E700BF57
:1054E00061436F63A787D23FB3C8608B288AC63FEA
:1054F000FB799F501344D33F0000F07FA46100006C
:10550000AD6100007F5D00000000F83FA860000072
:1055100061685046FFF7F2FADAF8243020601B6821
:105520000693059B0E2B00F25D81002D00F05A8141
:10553000DDE90234BBF1000FCDE90E3431DDA04AC4
:105540000BF00F0302EBC303D3E900344FEA2B1532
:10555000E806CDE908340CD59A4BDDE90E01D3E914
:105560000823FEF7A9FC05F00F05CDE9020103248D
:1055700000E00224934E6DB1E90708D5DDE908018A
:10558000D6E90023FEF76EFBCDE9080101346D106A
:105590000836F0E7DDE90823DDE90201FEF78CFCBF
:1055A00020E0CBF1000505B3854B864E05F00F02D8
:1055B00003EBC203D3E90023DDE90E01FEF752FB42
:1055C000CDE902012D110023022455B1EA0705D5CA
:1055D000D6E90023FEF746FB013401236D1008369F
:1055E000F3E71BB1CDE9020100E00224109BE3B117
:1055F000DDE902560022744B28463146FEF7A4FD31
:1056000098B1059B8BB1B9F1000F40F3E7800BF126
:10561000FF330893314600226C4B2846FEF722FBED
:105620000134CDE902014E4602E0059ECDF820B0DE
:105630002046FEF7B1FADDE90223FEF713FB644BC7
:105640000022FEF75DF9A1F1507304460C931D464C
:10565000D6B900225F4BDDE90201FEF74FF9224681
:105660000C9BCDE90201FEF78DFD002840F0408241
:105670000C99224601F10043DDE90201FEF764FDC9
:10568000002840F02C82A9E00A9A4D4B711E002A96
:1056900049D003EBC103D3E9002300204E49FEF7B4
:1056A0000BFC22462B46FEF729F9CDE90C01069C9E
:1056B000DDE90201FEF770FD0546FEF76DFA0246D0
:1056C0000B46DDE90201FEF719F9303504F8015BFC
:1056D000DDE90C23CDE90201FEF736FD002840F09C
:1056E0002083DDE9022300203749FEF707F9DDE9D1
:1056F0000C23FEF729FD002840F0D280069BE31A18
:10570000B3426BDA0022314BDDE90C01FEF7AAFA55
:105710000022CDE90C012D4BDDE90201FEF7A2FAD2
:10572000CDE90201C4E703EBC10122462B46D1E9D2
:105730000001FEF797FA069BCDE90C019C191D4666
:10574000DDE90201FEF728FD0646FEF725FA3036B0
:1057500002460B46DDE90201FEF7D0F805F8016BC1
:10576000AC42CDE902014FF0000223D11A4BDDE932
:105770000C01FEF7C5F802460B46DDE90201FEF713
:1057800001FD002840F08C80DDE90C230020124947
:10579000FEF7B4F802460B46DDE90201FEF7D4FC41
:1057A000E0B114F8013C302B04F1FF3240F0B98233
:1057B0001446F6E7054BFEF755FACDE90201BFE7BF
:1057C000A8600000706100000000F03F000024406D
:1057D00000001C40000014400000E03FDDE90E34F2
:1057E000CDE90234139B002B7DDBBBF10E0F7ADC7D
:1057F000AB4B03EBCB03D3E900671F9B002B14DA01
:10580000059B002B11DC40F06C810022A54B30463B
:105810003946FEF727FADDE90223FEF7A9FC059DCC
:105820002E46002840F05F8165E1DDE90289069C93
:1058300032463B4640464946FEF73EFBFEF7ACFC8F
:105840000546FEF7A9F932463B46FEF70BFA0B4632
:10585000024649464046FEF751F805F1300E069BD8
:1058600004F801EBC3EB040E059B73452ED10246F1
:105870000B46FEF745F88046894602460B46304601
:105880003946FEF761FC78B942464B463046394608
:10589000FEF750FC002800F04682EB0704D442E2F9
:1058A000DDF820B000E01C4614F8012C392A04F180
:1058B000FF3307D1069A9A42F5D1069930220BF1AF
:1058C000010B0A701A7801321A702CE20022764B12
:1058D000FEF7C8F90022002380468946FEF72AFC1D
:1058E0000028A5D01FE20A9A002A2BD01E9A012A6E
:1058F0000ADC119A12B103F2334302E0129BC3F1A6
:1059000036033D46444613E0059B5D1EAF42BFBFD4
:105910000B9BEA1B9B180B93059BB6BF2F467D1B69
:105920000025002BABBF059BC3EB080444460023B6
:10593000079A01211A44504698440792FFF7B2F99A
:10594000064602E00A9E3D4644465CB1079B002B9A
:1059500008DDA342079AA8BF2346C3EB0808E41A50
:10596000D31A0793002F1DDD0A9BABB18DB13146D1
:105970002A465046FFF730FA049A0146064650463A
:10598000FFF799F9049908905046FFF7ECF8089B47
:1059900004937A1B06D000E03A4604995046FFF77C
:1059A0001BFA049001215046FFF77CF90B9B05463A
:1059B0005BB31A4601465046FFF70EFA1E9B012BB9
:1059C000054618DC029B83B9039BC3F3130373B929
:1059D000039B23F000473F0D3F054FB1079B013369
:1059E00008F101080793012702E0002700E0029F69
:1059F0000B9B73B100E000272B6905EB830318694B
:105A0000FFF703F9C0F1200004E01E9B012BD9DD54
:105A10000B9F0120079B184410F01F0008D0C0F115
:105A20002003042B02DDC0F11C0002E006D0184662
:105A30001C30079B0344804404440793B8F1000FD3
:105A400005DD424604995046FFF714FA0490079B7F
:105A5000002B05DD29461A465046FFF70BFA05468E
:105A6000109B1BB329460498FFF755FA00281DDA4E
:105A700000230A2204995046FFF78CF80A9B0490F1
:105A80000BF1FF3B002B00F06081314600230A221E
:105A90005046FFF77FF8B9F1000F06463EDC3AE0CA
:105AA000A86000000000144000002440059B002B6B
:105AB0002BDC1E9B022B28DDDDF81490B9F1000FC2
:105AC00011D129464B4605225046FFF763F801469F
:105AD00005460498FFF71FFA00280CDC03E0354662
